{
	".deps/remix-tests/remix_accounts.sol": {
		"RemixAccounts": {
			"abi": [
				{
					"inputs": [],
					"name": "getAccount",
					"outputs": [
						{
							"internalType": "address",
							"name": "",
							"type": "address"
						}
					],
					"stateMutability": "pure",
					"type": "function"
				}
			],
			"devdoc": {
				"kind": "dev",
				"methods": {},
				"version": 1
			},
			"evm": {
				"assembly": "    /* \".deps/remix-tests/remix_accounts.sol\":63:336  contract RemixAccounts {... */\n  mstore(0x40, 0x80)\n  callvalue\n  dup1\n  iszero\n  tag_1\n  jumpi\n  0x00\n  dup1\n  revert\ntag_1:\n  pop\n  dataSize(sub_0)\n  dup1\n  dataOffset(sub_0)\n  0x00\n  codecopy\n  0x00\n  return\nstop\n\nsub_0: assembly {\n        /* \".deps/remix-tests/remix_accounts.sol\":63:336  contract RemixAccounts {... */\n      mstore(0x40, 0x80)\n      callvalue\n      dup1\n      iszero\n      tag_1\n      jumpi\n      0x00\n      dup1\n      revert\n    tag_1:\n      pop\n      jumpi(tag_2, lt(calldatasize, 0x04))\n      shr(0xe0, calldataload(0x00))\n      dup1\n      0xdb613e81\n      eq\n      tag_3\n      jumpi\n    tag_2:\n      0x00\n      dup1\n      revert\n        /* \".deps/remix-tests/remix_accounts.sol\":182:334  function getAccount() public pure returns (address){... */\n    tag_3:\n      0x40\n      dup1\n      mload\n        /* \".deps/remix-tests/remix_accounts.sol\":250:292  0xD8e224d85900dA192af04BeB4D698433f5E2777B */\n      0xd8e224d85900da192af04beb4d698433f5e2777b\n        /* \"#utility.yul\":160:211   */\n      dup2\n      mstore\n        /* \".deps/remix-tests/remix_accounts.sol\":182:334  function getAccount() public pure returns (address){... */\n      swap1\n      mload\n      swap1\n      dup2\n      swap1\n      sub\n        /* \"#utility.yul\":148:150   */\n      0x20\n        /* \".deps/remix-tests/remix_accounts.sol\":182:334  function getAccount() public pure returns (address){... */\n      add\n      swap1\n      return\n\n    auxdata: 0xa26469706673582212205c2327a1aa43f990c58c5c00623c928de5ec284bc2861e41b2390106fc80efa164736f6c634300081a0033\n}\n",
				"bytecode": {
					"linkReferences": {},
					"object": "6080604052348015600e575f80fd5b50608780601a5f395ff3fe6080604052348015600e575f80fd5b50600436106026575f3560e01c8063db613e8114602a575b5f80fd5b6040805173d8e224d85900da192af04beb4d698433f5e2777b815290519081900360200190f3fea26469706673582212205c2327a1aa43f990c58c5c00623c928de5ec284bc2861e41b2390106fc80efa164736f6c634300081a0033",
					"opcodes": "PUSH1 0x80 PUSH1 0x40 MSTORE CALLVALUE DUP1 ISZERO PUSH1 0xE JUMPI PUSH0 DUP1 REVERT JUMPDEST POP PUSH1 0x87 DUP1 PUSH1 0x1A PUSH0 CODECOPY PUSH0 RETURN INVALID PUSH1 0x80 PUSH1 0x40 MSTORE CALLVALUE DUP1 ISZERO PUSH1 0xE JUMPI PUSH0 DUP1 REVERT JUMPDEST POP PUSH1 0x4 CALLDATASIZE LT PUSH1 0x26 JUMPI PUSH0 CALLDATALOAD PUSH1 0xE0 SHR DUP1 PUSH4 0xDB613E81 EQ PUSH1 0x2A JUMPI JUMPDEST PUSH0 DUP1 REVERT JUMPDEST PUSH1 0x40 DUP1 MLOAD PUSH20 0xD8E224D85900DA192AF04BEB4D698433F5E2777B DUP2 MSTORE SWAP1 MLOAD SWAP1 DUP2 SWAP1 SUB PUSH1 0x20 ADD SWAP1 RETURN INVALID LOG2 PUSH5 0x6970667358 0x22 SLT KECCAK256 TLOAD 0x23 0x27 LOG1 0xAA NUMBER 0xF9 SWAP1 0xC5 DUP13 TLOAD STOP PUSH3 0x3C928D 0xE5 0xEC 0x28 0x4B 0xC2 DUP7 0x1E COINBASE 0xB2 CODECOPY ADD MOD 0xFC DUP1 0xEF LOG1 PUSH5 0x736F6C6343 STOP ADDMOD BYTE STOP CALLER "
				},
				"gasEstimates": {
					"creation": {
						"codeDepositCost": "27000",
						"executionCost": "79",
						"totalCost": "27079"
					},
					"external": {
						"getAccount()": "148"
					}
				},
				"methodIdentifiers": {
					"getAccount()": "db613e81"
				}
			},
			"storageLayout": {
				"storage": [],
				"types": null
			},
			"userdoc": {
				"kind": "user",
				"methods": {},
				"version": 1
			}
		}
	}
}