{
	"data": {
		"bytecode": {
			"linkReferences": {},
			"object": "6080604052348015600e575f80fd5b5060b680601a5f395ff3fe6080604052348015600e575f80fd5b50600436106026575f3560e01c8063ce88b14514602a575b5f80fd5b604e6035366004606a565b5073d8e224d85900da192af04beb4d698433f5e2777b90565b6040516001600160a01b03909116815260200160405180910390f35b5f602082840312156079575f80fd5b503591905056fea264697066735822122046422c041acce3bc069ad0a51dec27b5bc0048e3d3fe1f5beeed729e8d19849564736f6c634300081a0033",
			"opcodes": "PUSH1 0x80 PUSH1 0x40 MSTORE CALLVALUE DUP1 ISZERO PUSH1 0xE JUMPI PUSH0 DUP1 REVERT JUMPDEST POP PUSH1 0xB6 DUP1 PUSH1 0x1A PUSH0 CODECOPY PUSH0 RETURN INVALID PUSH1 0x80 PUSH1 0x40 MSTORE CALLVALUE DUP1 ISZERO PUSH1 0xE JUMPI PUSH0 DUP1 REVERT JUMPDEST POP PUSH1 0x4 CALLDATASIZE LT PUSH1 0x26 JUMPI PUSH0 CALLDATALOAD PUSH1 0xE0 SHR DUP1 PUSH4 0xCE88B145 EQ PUSH1 0x2A JUMPI JUMPDEST PUSH0 DUP1 REVERT JUMPDEST PUSH1 0x4E PUSH1 0x35 CALLDATASIZE PUSH1 0x4 PUSH1 0x6A JUMP JUMPDEST POP PUSH20 0xD8E224D85900DA192AF04BEB4D698433F5E2777B SWAP1 JUMP JUMPDEST PUSH1 0x40 MLOAD PUSH1 0x1 PUSH1 0x1 PUSH1 0xA0 SHL SUB SWAP1 SWAP2 AND DUP2 MSTORE PUSH1 0x20 ADD PUSH1 0x40 MLOAD DUP1 SWAP2 SUB SWAP1 RETURN JUMPDEST PUSH0 PUSH1 0x20 DUP3 DUP5 SUB SLT ISZERO PUSH1 0x79 JUMPI PUSH0 DUP1 REVERT JUMPDEST POP CALLDATALOAD SWAP2 SWAP1 POP JUMP INVALID LOG2 PUSH5 0x6970667358 0x22 SLT KECCAK256 CHAINID TIMESTAMP 0x2C DIV BYTE 0xCC 0xE3 0xBC MOD SWAP11 0xD0 0xA5 SAR 0xEC 0x27 0xB5 0xBC STOP BASEFEE 0xE3 0xD3 INVALID 0x1F JUMPDEST 0xEE 0xED PUSH19 0x9E8D19849564736F6C634300081A0033000000 "
		},
		"gasEstimates": {
			"creation": {
				"codeDepositCost": "36400",
				"executionCost": "85",
				"totalCost": "36485"
			},
			"external": {
				"getAccount(uint256)": "259"
			}
		},
		"methodIdentifiers": {
			"getAccount(uint256)": "ce88b145"
		}
	},
	"abi": [
		{
			"inputs": [
				{
					"internalType": "uint256",
					"name": "index",
					"type": "uint256"
				}
			],
			"name": "getAccount",
			"outputs": [
				{
					"internalType": "address",
					"name": "",
					"type": "address"
				}
			],
			"stateMutability": "pure",
			"type": "function"
		}
	]
}